{
  "contractName": "Identity",
  "abi": [
    {
      "constant": true,
      "inputs": [
        {
          "internalType": "bytes32",
          "name": "",
          "type": "bytes32"
        }
      ],
      "name": "members",
      "outputs": [
        {
          "internalType": "bool",
          "name": "exists",
          "type": "bool"
        },
        {
          "internalType": "string",
          "name": "fullname",
          "type": "string"
        },
        {
          "internalType": "string",
          "name": "dob",
          "type": "string"
        },
        {
          "internalType": "string",
          "name": "addr",
          "type": "string"
        },
        {
          "internalType": "string",
          "name": "gender",
          "type": "string"
        },
        {
          "internalType": "string",
          "name": "bloodgroup",
          "type": "string"
        },
        {
          "internalType": "uint256",
          "name": "mobile",
          "type": "uint256"
        },
        {
          "internalType": "string",
          "name": "imghash",
          "type": "string"
        }
      ],
      "payable": false,
      "stateMutability": "view",
      "type": "function"
    },
    {
      "constant": true,
      "inputs": [],
      "name": "uniqueKey",
      "outputs": [
        {
          "internalType": "bytes32",
          "name": "",
          "type": "bytes32"
        }
      ],
      "payable": false,
      "stateMutability": "view",
      "type": "function"
    },
    {
      "constant": false,
      "inputs": [
        {
          "internalType": "bytes32",
          "name": "_uniqueKey",
          "type": "bytes32"
        },
        {
          "internalType": "string",
          "name": "_date",
          "type": "string"
        },
        {
          "internalType": "string",
          "name": "_desc",
          "type": "string"
        },
        {
          "internalType": "string",
          "name": "_imghash",
          "type": "string"
        }
      ],
      "name": "addHealthData",
      "outputs": [],
      "payable": false,
      "stateMutability": "nonpayable",
      "type": "function"
    },
    {
      "constant": true,
      "inputs": [
        {
          "internalType": "bytes32",
          "name": "_uniqueKey",
          "type": "bytes32"
        },
        {
          "internalType": "uint256",
          "name": "index",
          "type": "uint256"
        }
      ],
      "name": "fetchHealthData",
      "outputs": [
        {
          "internalType": "string",
          "name": "",
          "type": "string"
        }
      ],
      "payable": false,
      "stateMutability": "view",
      "type": "function"
    },
    {
      "constant": false,
      "inputs": [
        {
          "internalType": "string",
          "name": "_name",
          "type": "string"
        },
        {
          "internalType": "string",
          "name": "_dob",
          "type": "string"
        },
        {
          "internalType": "string",
          "name": "_addr",
          "type": "string"
        },
        {
          "internalType": "string",
          "name": "_gender",
          "type": "string"
        },
        {
          "internalType": "string",
          "name": "_bloodgroup",
          "type": "string"
        },
        {
          "internalType": "uint256",
          "name": "_mobile",
          "type": "uint256"
        },
        {
          "internalType": "string",
          "name": "_imghash",
          "type": "string"
        }
      ],
      "name": "addPersonDetails",
      "outputs": [
        {
          "internalType": "bytes32",
          "name": "",
          "type": "bytes32"
        }
      ],
      "payable": false,
      "stateMutability": "nonpayable",
      "type": "function"
    },
    {
      "constant": true,
      "inputs": [
        {
          "internalType": "bytes32",
          "name": "_candidateId",
          "type": "bytes32"
        }
      ],
      "name": "getPersonDetails",
      "outputs": [
        {
          "internalType": "string",
          "name": "",
          "type": "string"
        },
        {
          "internalType": "string",
          "name": "",
          "type": "string"
        },
        {
          "internalType": "string",
          "name": "",
          "type": "string"
        },
        {
          "internalType": "string",
          "name": "",
          "type": "string"
        },
        {
          "internalType": "string",
          "name": "",
          "type": "string"
        },
        {
          "internalType": "uint256",
          "name": "",
          "type": "uint256"
        },
        {
          "internalType": "string",
          "name": "",
          "type": "string"
        }
      ],
      "payable": false,
      "stateMutability": "view",
      "type": "function"
    }
  ],
  "bytecode": "0x608060405234801561001057600080fd5b50611d3f806100206000396000f3fe608060405234801561001057600080fd5b50600436106100625760003560e01c80630ca09aa5146100675780631f718bf4146103315780634bebbb3614610606578063a9867b1d14610624578063abf37feb146109f0578063bbe869fe14610aa1575b600080fd5b6100936004803603602081101561007d57600080fd5b8101908080359060200190929190505050610c94565b6040518080602001806020018060200180602001806020018881526020018060200187810387528e818151815260200191508051906020019080838360005b838110156100ed5780820151818401526020810190506100d2565b50505050905090810190601f16801561011a5780820380516001836020036101000a031916815260200191505b5087810386528d818151815260200191508051906020019080838360005b83811015610153578082015181840152602081019050610138565b50505050905090810190601f1680156101805780820380516001836020036101000a031916815260200191505b5087810385528c818151815260200191508051906020019080838360005b838110156101b957808201518184015260208101905061019e565b50505050905090810190601f1680156101e65780820380516001836020036101000a031916815260200191505b5087810384528b818151815260200191508051906020019080838360005b8381101561021f578082015181840152602081019050610204565b50505050905090810190601f16801561024c5780820380516001836020036101000a031916815260200191505b5087810383528a818151815260200191508051906020019080838360005b8381101561028557808201518184015260208101905061026a565b50505050905090810190601f1680156102b25780820380516001836020036101000a031916815260200191505b50878103825288818151815260200191508051906020019080838360005b838110156102eb5780820151818401526020810190506102d0565b50505050905090810190601f1680156103185780820380516001836020036101000a031916815260200191505b509d505050505050505050505050505060405180910390f35b61035d6004803603602081101561034757600080fd5b8101908080359060200190929190505050611193565b604051808915151515815260200180602001806020018060200180602001806020018881526020018060200187810387528e818151815260200191508051906020019080838360005b838110156103c15780820151818401526020810190506103a6565b50505050905090810190601f1680156103ee5780820380516001836020036101000a031916815260200191505b5087810386528d818151815260200191508051906020019080838360005b8381101561042757808201518184015260208101905061040c565b50505050905090810190601f1680156104545780820380516001836020036101000a031916815260200191505b5087810385528c818151815260200191508051906020019080838360005b8381101561048d578082015181840152602081019050610472565b50505050905090810190601f1680156104ba5780820380516001836020036101000a031916815260200191505b5087810384528b818151815260200191508051906020019080838360005b838110156104f35780820151818401526020810190506104d8565b50505050905090810190601f1680156105205780820380516001836020036101000a031916815260200191505b5087810383528a818151815260200191508051906020019080838360005b8381101561055957808201518184015260208101905061053e565b50505050905090810190601f1680156105865780820380516001836020036101000a031916815260200191505b50878103825288818151815260200191508051906020019080838360005b838110156105bf5780820151818401526020810190506105a4565b50505050905090810190601f1680156105ec5780820380516001836020036101000a031916815260200191505b509e50505050505050505050505050505060405180910390f35b61060e611578565b6040518082815260200191505060405180910390f35b6109da600480360360e081101561063a57600080fd5b810190808035906020019064010000000081111561065757600080fd5b82018360208201111561066957600080fd5b8035906020019184600183028401116401000000008311171561068b57600080fd5b91908080601f016020809104026020016040519081016040528093929190818152602001838380828437600081840152601f19601f820116905080830192505050505050509192919290803590602001906401000000008111156106ee57600080fd5b82018360208201111561070057600080fd5b8035906020019184600183028401116401000000008311171561072257600080fd5b91908080601f016020809104026020016040519081016040528093929190818152602001838380828437600081840152601f19601f8201169050808301925050505050505091929192908035906020019064010000000081111561078557600080fd5b82018360208201111561079757600080fd5b803590602001918460018302840111640100000000831117156107b957600080fd5b91908080601f016020809104026020016040519081016040528093929190818152602001838380828437600081840152601f19601f8201169050808301925050505050505091929192908035906020019064010000000081111561081c57600080fd5b82018360208201111561082e57600080fd5b8035906020019184600183028401116401000000008311171561085057600080fd5b91908080601f016020809104026020016040519081016040528093929190818152602001838380828437600081840152601f19601f820116905080830192505050505050509192919290803590602001906401000000008111156108b357600080fd5b8201836020820111156108c557600080fd5b803590602001918460018302840111640100000000831117156108e757600080fd5b91908080601f016020809104026020016040519081016040528093929190818152602001838380828437600081840152601f19601f820116905080830192505050505050509192919290803590602001909291908035906020019064010000000081111561095457600080fd5b82018360208201111561096657600080fd5b8035906020019184600183028401116401000000008311171561098857600080fd5b91908080601f016020809104026020016040519081016040528093929190818152602001838380828437600081840152601f19601f82011690508083019250505050505050919291929050505061157e565b6040518082815260200191505060405180910390f35b610a2660048036036040811015610a0657600080fd5b81019080803590602001909291908035906020019092919050505061178c565b6040518080602001828103825283818151815260200191508051906020019080838360005b83811015610a66578082015181840152602081019050610a4b565b50505050905090810190601f168015610a935780820380516001836020036101000a031916815260200191505b509250505060405180910390f35b610c9260048036036080811015610ab757600080fd5b810190808035906020019092919080359060200190640100000000811115610ade57600080fd5b820183602082011115610af057600080fd5b80359060200191846001830284011164010000000083111715610b1257600080fd5b91908080601f016020809104026020016040519081016040528093929190818152602001838380828437600081840152601f19601f82011690508083019250505050505050919291929080359060200190640100000000811115610b7557600080fd5b820183602082011115610b8757600080fd5b80359060200191846001830284011164010000000083111715610ba957600080fd5b91908080601f016020809104026020016040519081016040528093929190818152602001838380828437600081840152601f19601f82011690508083019250505050505050919291929080359060200190640100000000811115610c0c57600080fd5b820183602082011115610c1e57600080fd5b80359060200191846001830284011164010000000083111715610c4057600080fd5b91908080601f016020809104026020016040519081016040528093929190818152602001838380828437600081840152601f19601f8201169050808301925050505050505091929192905050506118f8565b005b6060806060806060600060606001600089815260200190815260200160002060000160009054906101000a900460ff1615610d37576040517f08c379a000000000000000000000000000000000000000000000000000000000815260040180806020018281038252600d8152602001807f4e6f205573657220466f756e640000000000000000000000000000000000000081525060200191505060405180910390fd5b60016000898152602001908152602001600020600101600160008a8152602001908152602001600020600201600160008b8152602001908152602001600020600301600160008c8152602001908152602001600020600401600160008d8152602001908152602001600020600501600160008e815260200190815260200160002060060154600160008f8152602001908152602001600020600701868054600181600116156101000203166002900480601f016020809104026020016040519081016040528092919081815260200182805460018160011615610100020316600290048015610e675780601f10610e3c57610100808354040283529160200191610e67565b820191906000526020600020905b815481529060010190602001808311610e4a57829003601f168201915b50505050509650858054600181600116156101000203166002900480601f016020809104026020016040519081016040528092919081815260200182805460018160011615610100020316600290048015610f035780601f10610ed857610100808354040283529160200191610f03565b820191906000526020600020905b815481529060010190602001808311610ee657829003601f168201915b50505050509550848054600181600116156101000203166002900480601f016020809104026020016040519081016040528092919081815260200182805460018160011615610100020316600290048015610f9f5780601f10610f7457610100808354040283529160200191610f9f565b820191906000526020600020905b815481529060010190602001808311610f8257829003601f168201915b50505050509450838054600181600116156101000203166002900480601f01602080910402602001604051908101604052809291908181526020018280546001816001161561010002031660029004801561103b5780601f106110105761010080835404028352916020019161103b565b820191906000526020600020905b81548152906001019060200180831161101e57829003601f168201915b50505050509350828054600181600116156101000203166002900480601f0160208091040260200160405190810160405280929190818152602001828054600181600116156101000203166002900480156110d75780601f106110ac576101008083540402835291602001916110d7565b820191906000526020600020905b8154815290600101906020018083116110ba57829003601f168201915b50505050509250808054600181600116156101000203166002900480601f0160208091040260200160405190810160405280929190818152602001828054600181600116156101000203166002900480156111735780601f1061114857610100808354040283529160200191611173565b820191906000526020600020905b81548152906001019060200180831161115657829003601f168201915b505050505090509650965096509650965096509650919395979092949650565b60016020528060005260406000206000915090508060000160009054906101000a900460ff1690806001018054600181600116156101000203166002900480601f0160208091040260200160405190810160405280929190818152602001828054600181600116156101000203166002900480156112525780601f1061122757610100808354040283529160200191611252565b820191906000526020600020905b81548152906001019060200180831161123557829003601f168201915b505050505090806002018054600181600116156101000203166002900480601f0160208091040260200160405190810160405280929190818152602001828054600181600116156101000203166002900480156112f05780601f106112c5576101008083540402835291602001916112f0565b820191906000526020600020905b8154815290600101906020018083116112d357829003601f168201915b505050505090806003018054600181600116156101000203166002900480601f01602080910402602001604051908101604052809291908181526020018280546001816001161561010002031660029004801561138e5780601f106113635761010080835404028352916020019161138e565b820191906000526020600020905b81548152906001019060200180831161137157829003601f168201915b505050505090806004018054600181600116156101000203166002900480601f01602080910402602001604051908101604052809291908181526020018280546001816001161561010002031660029004801561142c5780601f106114015761010080835404028352916020019161142c565b820191906000526020600020905b81548152906001019060200180831161140f57829003601f168201915b505050505090806005018054600181600116156101000203166002900480601f0160208091040260200160405190810160405280929190818152602001828054600181600116156101000203166002900480156114ca5780601f1061149f576101008083540402835291602001916114ca565b820191906000526020600020905b8154815290600101906020018083116114ad57829003601f168201915b505050505090806006015490806007018054600181600116156101000203166002900480601f01602080910402602001604051908101604052809291908181526020018280546001816001161561010002031660029004801561156e5780601f106115435761010080835404028352916020019161156e565b820191906000526020600020905b81548152906001019060200180831161155157829003601f168201915b5050505050905088565b60005481565b600061158b888887611a74565b600081905550600160008054815260200190815260200160002060000160009054906101000a900460ff1615611629576040517f08c379a00000000000000000000000000000000000000000000000000000000081526004018080602001828103825260128152602001807f416c72656164792072656769737465726564000000000000000000000000000081525060200191505060405180910390fd5b60018060008054815260200190815260200160002060000160006101000a81548160ff0219169083151502179055508760016000805481526020019081526020016000206001019080519060200190611683929190611be5565b5086600160008054815260200190815260200160002060020190805190602001906116af929190611be5565b5085600160008054815260200190815260200160002060030190805190602001906116db929190611be5565b508460016000805481526020019081526020016000206004019080519060200190611707929190611be5565b508360016000805481526020019081526020016000206005019080519060200190611733929190611be5565b5082600160008054815260200190815260200160002060060181905550816001600080548152602001908152602001600020600701908051906020019061177b929190611be5565b506000549050979650505050505050565b60606001600084815260200190815260200160002060000160009054906101000a900460ff1615611825576040517f08c379a000000000000000000000000000000000000000000000000000000000815260040180806020018281038252600d8152602001807f4e6f205573657220466f756e640000000000000000000000000000000000000081525060200191505060405180910390fd5b60016000848152602001908152602001600020600801828154811061184657fe5b90600052602060002090600402016002018054600181600116156101000203166002900480601f0160208091040260200160405190810160405280929190818152602001828054600181600116156101000203166002900480156118eb5780601f106118c0576101008083540402835291602001916118eb565b820191906000526020600020905b8154815290600101906020018083116118ce57829003601f168201915b5050505050905092915050565b6001600085815260200190815260200160002060000160009054906101000a900460ff161561198f576040517f08c379a000000000000000000000000000000000000000000000000000000000815260040180806020018281038252600d8152602001807f4e6f205573657220466f756e640000000000000000000000000000000000000081525060200191505060405180910390fd5b600160008581526020019081526020016000206008016040518060800160405280600115158152602001858152602001848152602001838152509080600181540180825580915050906001820390600052602060002090600402016000909192909190915060008201518160000160006101000a81548160ff0219169083151502179055506020820151816001019080519060200190611a30929190611c65565b506040820151816002019080519060200190611a4d929190611c65565b506060820151816003019080519060200190611a6a929190611c65565b5050505050505050565b600083838360405160200180806020018060200180602001848103845287818151815260200191508051906020019080838360005b83811015611ac4578082015181840152602081019050611aa9565b50505050905090810190601f168015611af15780820380516001836020036101000a031916815260200191505b50848103835286818151815260200191508051906020019080838360005b83811015611b2a578082015181840152602081019050611b0f565b50505050905090810190601f168015611b575780820380516001836020036101000a031916815260200191505b50848103825285818151815260200191508051906020019080838360005b83811015611b90578082015181840152602081019050611b75565b50505050905090810190601f168015611bbd5780820380516001836020036101000a031916815260200191505b5096505050505050506040516020818303038152906040528051906020012090509392505050565b828054600181600116156101000203166002900490600052602060002090601f016020900481019282601f10611c2657805160ff1916838001178555611c54565b82800160010185558215611c54579182015b82811115611c53578251825591602001919060010190611c38565b5b509050611c619190611ce5565b5090565b828054600181600116156101000203166002900490600052602060002090601f016020900481019282601f10611ca657805160ff1916838001178555611cd4565b82800160010185558215611cd4579182015b82811115611cd3578251825591602001919060010190611cb8565b5b509050611ce19190611ce5565b5090565b611d0791905b80821115611d03576000816000905550600101611ceb565b5090565b9056fea265627a7a723158202fadfcfed5a84b54ce6d11b0caffc09e60de06f0159d3a4552da6181df076a6564736f6c63430005100032",
  "source": "pragma solidity ^0.5.0;\n\ncontract Identity {\n    struct HealthRec {\n\t\tbool exists;\n        string date;\n        string desc;\n        string imghash;\n    }\n    struct Person {\n\t\tbool exists;\n        string fullname;\n        string dob;\n        string addr;\n        string gender;\n        string bloodgroup;\n        uint mobile;\n        string imghash;\n        HealthRec[] healthdata;\n    }\n    bytes32 public uniqueKey;\n    mapping(bytes32 => Person) public members;\n    function hashIt (string memory name, string memory dob, string memory gender) private pure returns (bytes32){\n        return (keccak256(abi.encode(name, dob, gender)));\n    }\n    function addHealthData(bytes32 _uniqueKey, string memory _date, string memory _desc, string memory _imghash) public{\n        require(!members[_uniqueKey].exists, \"No User Found\");\n        members[_uniqueKey].healthdata.push(HealthRec({exists: true, date: _date, desc: _desc, imghash: _imghash}));\n    }\n    function fetchHealthData(bytes32 _uniqueKey, uint index) public view returns (string memory) {\n        require(!members[_uniqueKey].exists, \"No User Found\");\n        return (members[_uniqueKey].healthdata[index].desc);\n    }\n    function addPersonDetails(string memory _name, string memory _dob, string memory _addr, string memory _gender,\n        string memory _bloodgroup, uint _mobile, string memory _imghash) public returns (bytes32) {\n        uniqueKey = hashIt(_name, _dob, _gender);\n        require(!members[uniqueKey].exists, \"Already registered\");\n        members[uniqueKey].exists = true;\n        members[uniqueKey].fullname = _name;\n        members[uniqueKey].dob = _dob;\n        members[uniqueKey].addr = _addr;\n        members[uniqueKey].gender = _gender;\n        members[uniqueKey].bloodgroup = _bloodgroup;\n        members[uniqueKey].mobile = _mobile;\n        members[uniqueKey].imghash = _imghash;\n        return (uniqueKey);\n    }\n    function getPersonDetails(bytes32 _candidateId) public view returns (string memory, string memory, string memory, string memory,\n        string memory, uint, string memory) {\n        require(!members[_candidateId].exists, \"No User Found\");\n        return (members[_candidateId].fullname, members[_candidateId].dob,\n        members[_candidateId].addr, members[_candidateId].gender, members[_candidateId].bloodgroup, members[_candidateId].mobile, members[_candidateId].imghash);\n    }\n}",
  "sourcePath": "/Users/apple/code/dotslash/identity/contracts/Identity.sol",
  "compiler": {
    "name": "solc",
    "version": "0.5.16+commit.9c3226ce.Emscripten.clang"
  },
  "schemaVersion": "3.0.21",
  "updatedAt": "2020-01-18T23:41:59.689Z",
  "devdoc": {
    "methods": {}
  },
  "userdoc": {
    "methods": {}
  }
}