{
  "contractName": "Identity",
  "abi": [
    {
      "constant": true,
      "inputs": [
        {
          "internalType": "bytes32",
          "name": "",
          "type": "bytes32"
        }
      ],
      "name": "members",
      "outputs": [
        {
          "internalType": "bool",
          "name": "exists",
          "type": "bool"
        },
        {
          "internalType": "string",
          "name": "fullname",
          "type": "string"
        },
        {
          "internalType": "string",
          "name": "dob",
          "type": "string"
        },
        {
          "internalType": "string",
          "name": "addr",
          "type": "string"
        },
        {
          "internalType": "string",
          "name": "gender",
          "type": "string"
        },
        {
          "internalType": "string",
          "name": "bloodgroup",
          "type": "string"
        },
        {
          "internalType": "uint256",
          "name": "mobile",
          "type": "uint256"
        },
        {
          "internalType": "string",
          "name": "imghash",
          "type": "string"
        }
      ],
      "payable": false,
      "stateMutability": "view",
      "type": "function"
    },
    {
      "constant": true,
      "inputs": [],
      "name": "uniqueKey",
      "outputs": [
        {
          "internalType": "bytes32",
          "name": "",
          "type": "bytes32"
        }
      ],
      "payable": false,
      "stateMutability": "view",
      "type": "function"
    },
    {
      "constant": false,
      "inputs": [
        {
          "internalType": "bytes32",
          "name": "_uniqueKey",
          "type": "bytes32"
        },
        {
          "internalType": "string",
          "name": "_date",
          "type": "string"
        },
        {
          "internalType": "string",
          "name": "_desc",
          "type": "string"
        },
        {
          "internalType": "string",
          "name": "_imghash",
          "type": "string"
        }
      ],
      "name": "addHealthData",
      "outputs": [],
      "payable": false,
      "stateMutability": "nonpayable",
      "type": "function"
    },
    {
      "constant": true,
      "inputs": [
        {
          "internalType": "bytes32",
          "name": "_uniqueKey",
          "type": "bytes32"
        },
        {
          "internalType": "uint256",
          "name": "index",
          "type": "uint256"
        }
      ],
      "name": "fetchHealthData",
      "outputs": [
        {
          "internalType": "string",
          "name": "",
          "type": "string"
        }
      ],
      "payable": false,
      "stateMutability": "view",
      "type": "function"
    },
    {
      "constant": false,
      "inputs": [
        {
          "internalType": "string",
          "name": "_name",
          "type": "string"
        },
        {
          "internalType": "string",
          "name": "_dob",
          "type": "string"
        },
        {
          "internalType": "string",
          "name": "_addr",
          "type": "string"
        },
        {
          "internalType": "string",
          "name": "_gender",
          "type": "string"
        },
        {
          "internalType": "string",
          "name": "_bloodgroup",
          "type": "string"
        },
        {
          "internalType": "uint256",
          "name": "_mobile",
          "type": "uint256"
        },
        {
          "internalType": "string",
          "name": "_imghash",
          "type": "string"
        }
      ],
      "name": "addPersonDetails",
      "outputs": [
        {
          "internalType": "bytes32",
          "name": "",
          "type": "bytes32"
        }
      ],
      "payable": false,
      "stateMutability": "nonpayable",
      "type": "function"
    },
    {
      "constant": true,
      "inputs": [
        {
          "internalType": "bytes32",
          "name": "_candidateId",
          "type": "bytes32"
        }
      ],
      "name": "getPersonDetails",
      "outputs": [
        {
          "internalType": "string",
          "name": "",
          "type": "string"
        },
        {
          "internalType": "string",
          "name": "",
          "type": "string"
        },
        {
          "internalType": "string",
          "name": "",
          "type": "string"
        },
        {
          "internalType": "string",
          "name": "",
          "type": "string"
        },
        {
          "internalType": "string",
          "name": "",
          "type": "string"
        },
        {
          "internalType": "uint256",
          "name": "",
          "type": "uint256"
        },
        {
          "internalType": "string",
          "name": "",
          "type": "string"
        }
      ],
      "payable": false,
      "stateMutability": "view",
      "type": "function"
    }
  ],
  "bytecode": "0x608060405234801561001057600080fd5b50611de3806100206000396000f3fe608060405234801561001057600080fd5b50600436106100625760003560e01c80630ca09aa5146100675780631f718bf4146103315780634bebbb3614610606578063a9867b1d14610624578063abf37feb146109f0578063bbe869fe14610aa1575b600080fd5b6100936004803603602081101561007d57600080fd5b8101908080359060200190929190505050610c94565b6040518080602001806020018060200180602001806020018881526020018060200187810387528e818151815260200191508051906020019080838360005b838110156100ed5780820151818401526020810190506100d2565b50505050905090810190601f16801561011a5780820380516001836020036101000a031916815260200191505b5087810386528d818151815260200191508051906020019080838360005b83811015610153578082015181840152602081019050610138565b50505050905090810190601f1680156101805780820380516001836020036101000a031916815260200191505b5087810385528c818151815260200191508051906020019080838360005b838110156101b957808201518184015260208101905061019e565b50505050905090810190601f1680156101e65780820380516001836020036101000a031916815260200191505b5087810384528b818151815260200191508051906020019080838360005b8381101561021f578082015181840152602081019050610204565b50505050905090810190601f16801561024c5780820380516001836020036101000a031916815260200191505b5087810383528a818151815260200191508051906020019080838360005b8381101561028557808201518184015260208101905061026a565b50505050905090810190601f1680156102b25780820380516001836020036101000a031916815260200191505b50878103825288818151815260200191508051906020019080838360005b838110156102eb5780820151818401526020810190506102d0565b50505050905090810190601f1680156103185780820380516001836020036101000a031916815260200191505b509d505050505050505050505050505060405180910390f35b61035d6004803603602081101561034757600080fd5b8101908080359060200190929190505050611192565b604051808915151515815260200180602001806020018060200180602001806020018881526020018060200187810387528e818151815260200191508051906020019080838360005b838110156103c15780820151818401526020810190506103a6565b50505050905090810190601f1680156103ee5780820380516001836020036101000a031916815260200191505b5087810386528d818151815260200191508051906020019080838360005b8381101561042757808201518184015260208101905061040c565b50505050905090810190601f1680156104545780820380516001836020036101000a031916815260200191505b5087810385528c818151815260200191508051906020019080838360005b8381101561048d578082015181840152602081019050610472565b50505050905090810190601f1680156104ba5780820380516001836020036101000a031916815260200191505b5087810384528b818151815260200191508051906020019080838360005b838110156104f35780820151818401526020810190506104d8565b50505050905090810190601f1680156105205780820380516001836020036101000a031916815260200191505b5087810383528a818151815260200191508051906020019080838360005b8381101561055957808201518184015260208101905061053e565b50505050905090810190601f1680156105865780820380516001836020036101000a031916815260200191505b50878103825288818151815260200191508051906020019080838360005b838110156105bf5780820151818401526020810190506105a4565b50505050905090810190601f1680156105ec5780820380516001836020036101000a031916815260200191505b509e50505050505050505050505050505060405180910390f35b61060e611577565b6040518082815260200191505060405180910390f35b6109da600480360360e081101561063a57600080fd5b810190808035906020019064010000000081111561065757600080fd5b82018360208201111561066957600080fd5b8035906020019184600183028401116401000000008311171561068b57600080fd5b91908080601f016020809104026020016040519081016040528093929190818152602001838380828437600081840152601f19601f820116905080830192505050505050509192919290803590602001906401000000008111156106ee57600080fd5b82018360208201111561070057600080fd5b8035906020019184600183028401116401000000008311171561072257600080fd5b91908080601f016020809104026020016040519081016040528093929190818152602001838380828437600081840152601f19601f8201169050808301925050505050505091929192908035906020019064010000000081111561078557600080fd5b82018360208201111561079757600080fd5b803590602001918460018302840111640100000000831117156107b957600080fd5b91908080601f016020809104026020016040519081016040528093929190818152602001838380828437600081840152601f19601f8201169050808301925050505050505091929192908035906020019064010000000081111561081c57600080fd5b82018360208201111561082e57600080fd5b8035906020019184600183028401116401000000008311171561085057600080fd5b91908080601f016020809104026020016040519081016040528093929190818152602001838380828437600081840152601f19601f820116905080830192505050505050509192919290803590602001906401000000008111156108b357600080fd5b8201836020820111156108c557600080fd5b803590602001918460018302840111640100000000831117156108e757600080fd5b91908080601f016020809104026020016040519081016040528093929190818152602001838380828437600081840152601f19601f820116905080830192505050505050509192919290803590602001909291908035906020019064010000000081111561095457600080fd5b82018360208201111561096657600080fd5b8035906020019184600183028401116401000000008311171561098857600080fd5b91908080601f016020809104026020016040519081016040528093929190818152602001838380828437600081840152601f19601f82011690508083019250505050505050919291929050505061157d565b6040518082815260200191505060405180910390f35b610a2660048036036040811015610a0657600080fd5b810190808035906020019092919080359060200190929190505050611780565b6040518080602001828103825283818151815260200191508051906020019080838360005b83811015610a66578082015181840152602081019050610a4b565b50505050905090810190601f168015610a935780820380516001836020036101000a031916815260200191505b509250505060405180910390f35b610c9260048036036080811015610ab757600080fd5b810190808035906020019092919080359060200190640100000000811115610ade57600080fd5b820183602082011115610af057600080fd5b80359060200191846001830284011164010000000083111715610b1257600080fd5b91908080601f016020809104026020016040519081016040528093929190818152602001838380828437600081840152601f19601f82011690508083019250505050505050919291929080359060200190640100000000811115610b7557600080fd5b820183602082011115610b8757600080fd5b80359060200191846001830284011164010000000083111715610ba957600080fd5b91908080601f016020809104026020016040519081016040528093929190818152602001838380828437600081840152601f19601f82011690508083019250505050505050919291929080359060200190640100000000811115610c0c57600080fd5b820183602082011115610c1e57600080fd5b80359060200191846001830284011164010000000083111715610c4057600080fd5b91908080601f016020809104026020016040519081016040528093929190818152602001838380828437600081840152601f19601f82011690508083019250505050505050919291929050505061199d565b005b6060806060806060600060606001600089815260200190815260200160002060000160009054906101000a900460ff16610d36576040517f08c379a000000000000000000000000000000000000000000000000000000000815260040180806020018281038252600d8152602001807f4e6f205573657220466f756e640000000000000000000000000000000000000081525060200191505060405180910390fd5b60016000898152602001908152602001600020600101600160008a8152602001908152602001600020600201600160008b8152602001908152602001600020600301600160008c8152602001908152602001600020600401600160008d8152602001908152602001600020600501600160008e815260200190815260200160002060060154600160008f8152602001908152602001600020600701868054600181600116156101000203166002900480601f016020809104026020016040519081016040528092919081815260200182805460018160011615610100020316600290048015610e665780601f10610e3b57610100808354040283529160200191610e66565b820191906000526020600020905b815481529060010190602001808311610e4957829003601f168201915b50505050509650858054600181600116156101000203166002900480601f016020809104026020016040519081016040528092919081815260200182805460018160011615610100020316600290048015610f025780601f10610ed757610100808354040283529160200191610f02565b820191906000526020600020905b815481529060010190602001808311610ee557829003601f168201915b50505050509550848054600181600116156101000203166002900480601f016020809104026020016040519081016040528092919081815260200182805460018160011615610100020316600290048015610f9e5780601f10610f7357610100808354040283529160200191610f9e565b820191906000526020600020905b815481529060010190602001808311610f8157829003601f168201915b50505050509450838054600181600116156101000203166002900480601f01602080910402602001604051908101604052809291908181526020018280546001816001161561010002031660029004801561103a5780601f1061100f5761010080835404028352916020019161103a565b820191906000526020600020905b81548152906001019060200180831161101d57829003601f168201915b50505050509350828054600181600116156101000203166002900480601f0160208091040260200160405190810160405280929190818152602001828054600181600116156101000203166002900480156110d65780601f106110ab576101008083540402835291602001916110d6565b820191906000526020600020905b8154815290600101906020018083116110b957829003601f168201915b50505050509250808054600181600116156101000203166002900480601f0160208091040260200160405190810160405280929190818152602001828054600181600116156101000203166002900480156111725780601f1061114757610100808354040283529160200191611172565b820191906000526020600020905b81548152906001019060200180831161115557829003601f168201915b505050505090509650965096509650965096509650919395979092949650565b60016020528060005260406000206000915090508060000160009054906101000a900460ff1690806001018054600181600116156101000203166002900480601f0160208091040260200160405190810160405280929190818152602001828054600181600116156101000203166002900480156112515780601f1061122657610100808354040283529160200191611251565b820191906000526020600020905b81548152906001019060200180831161123457829003601f168201915b505050505090806002018054600181600116156101000203166002900480601f0160208091040260200160405190810160405280929190818152602001828054600181600116156101000203166002900480156112ef5780601f106112c4576101008083540402835291602001916112ef565b820191906000526020600020905b8154815290600101906020018083116112d257829003601f168201915b505050505090806003018054600181600116156101000203166002900480601f01602080910402602001604051908101604052809291908181526020018280546001816001161561010002031660029004801561138d5780601f106113625761010080835404028352916020019161138d565b820191906000526020600020905b81548152906001019060200180831161137057829003601f168201915b505050505090806004018054600181600116156101000203166002900480601f01602080910402602001604051908101604052809291908181526020018280546001816001161561010002031660029004801561142b5780601f106114005761010080835404028352916020019161142b565b820191906000526020600020905b81548152906001019060200180831161140e57829003601f168201915b505050505090806005018054600181600116156101000203166002900480601f0160208091040260200160405190810160405280929190818152602001828054600181600116156101000203166002900480156114c95780601f1061149e576101008083540402835291602001916114c9565b820191906000526020600020905b8154815290600101906020018083116114ac57829003601f168201915b505050505090806006015490806007018054600181600116156101000203166002900480601f01602080910402602001604051908101604052809291908181526020018280546001816001161561010002031660029004801561156d5780601f106115425761010080835404028352916020019161156d565b820191906000526020600020905b81548152906001019060200180831161155057829003601f168201915b5050505050905088565b60005481565b600061158a888887611b18565b600160008054815260200190815260200160002060000160009054906101000a900460ff1615611622576040517f08c379a00000000000000000000000000000000000000000000000000000000081526004018080602001828103825260128152602001807f416c72656164792072656769737465726564000000000000000000000000000081525060200191505060405180910390fd5b60018060008054815260200190815260200160002060000160006101000a81548160ff021916908315150217905550876001600080548152602001908152602001600020600101908051906020019061167c929190611c89565b5086600160008054815260200190815260200160002060020190805190602001906116a8929190611c89565b5085600160008054815260200190815260200160002060030190805190602001906116d4929190611c89565b508460016000805481526020019081526020016000206004019080519060200190611700929190611c89565b50836001600080548152602001908152602001600020600501908051906020019061172c929190611c89565b50826001600080548152602001908152602001600020600601819055508160016000805481526020019081526020016000206007019080519060200190611774929190611c89565b50979650505050505050565b60606001600084815260200190815260200160002060000160009054906101000a900460ff16611818576040517f08c379a000000000000000000000000000000000000000000000000000000000815260040180806020018281038252600d8152602001807f4e6f205573657220466f756e640000000000000000000000000000000000000081525060200191505060405180910390fd5b60016000848152602001908152602001600020600801828154811061183957fe5b906000526020600020906004020160000160009054906101000a900460ff166118ca576040517f08c379a00000000000000000000000000000000000000000000000000000000081526004018080602001828103825260168152602001807f4e6f204865616c7468205265636f726420466f756e640000000000000000000081525060200191505060405180910390fd5b6001600084815260200190815260200160002060080182815481106118eb57fe5b90600052602060002090600402016002018054600181600116156101000203166002900480601f0160208091040260200160405190810160405280929190818152602001828054600181600116156101000203166002900480156119905780601f1061196557610100808354040283529160200191611990565b820191906000526020600020905b81548152906001019060200180831161197357829003601f168201915b5050505050905092915050565b6001600085815260200190815260200160002060000160009054906101000a900460ff16611a33576040517f08c379a000000000000000000000000000000000000000000000000000000000815260040180806020018281038252600d8152602001807f4e6f205573657220466f756e640000000000000000000000000000000000000081525060200191505060405180910390fd5b600160008581526020019081526020016000206008016040518060800160405280600115158152602001858152602001848152602001838152509080600181540180825580915050906001820390600052602060002090600402016000909192909190915060008201518160000160006101000a81548160ff0219169083151502179055506020820151816001019080519060200190611ad4929190611d09565b506040820151816002019080519060200190611af1929190611d09565b506060820151816003019080519060200190611b0e929190611d09565b5050505050505050565b82828260405160200180806020018060200180602001848103845287818151815260200191508051906020019080838360005b83811015611b66578082015181840152602081019050611b4b565b50505050905090810190601f168015611b935780820380516001836020036101000a031916815260200191505b50848103835286818151815260200191508051906020019080838360005b83811015611bcc578082015181840152602081019050611bb1565b50505050905090810190601f168015611bf95780820380516001836020036101000a031916815260200191505b50848103825285818151815260200191508051906020019080838360005b83811015611c32578082015181840152602081019050611c17565b50505050905090810190601f168015611c5f5780820380516001836020036101000a031916815260200191505b50965050505050505060405160208183030381529060405280519060200120600081905550505050565b828054600181600116156101000203166002900490600052602060002090601f016020900481019282601f10611cca57805160ff1916838001178555611cf8565b82800160010185558215611cf8579182015b82811115611cf7578251825591602001919060010190611cdc565b5b509050611d059190611d89565b5090565b828054600181600116156101000203166002900490600052602060002090601f016020900481019282601f10611d4a57805160ff1916838001178555611d78565b82800160010185558215611d78579182015b82811115611d77578251825591602001919060010190611d5c565b5b509050611d859190611d89565b5090565b611dab91905b80821115611da7576000816000905550600101611d8f565b5090565b9056fea265627a7a7231582019360369550a80951b2bf41db900f9d29cb887bbdae64c4b9ac5360e58fbec7364736f6c63430005100032",
  "source": "pragma solidity ^0.5.0;\n\ncontract Identity {\n    struct HealthRec {\n\t\tbool exists;\n        string date;\n        string desc;\n        string imghash;\n    }\n    struct Person {\n\t\tbool exists;\n        string fullname;\n        string dob;\n        string addr;\n        string gender;\n        string bloodgroup;\n        uint mobile;\n        string imghash;\n        HealthRec[] healthdata;\n    }\n    bytes32 public uniqueKey;\n    mapping(bytes32 => Person) public members;\n    function hashIt (string memory name, string memory dob, string memory gender) private{\n        uniqueKey = keccak256(abi.encode(name, dob, gender));\n    }\n    function addHealthData(bytes32 _uniqueKey, string memory _date, string memory _desc, string memory _imghash) public{\n        require(members[_uniqueKey].exists, \"No User Found\");\n        members[_uniqueKey].healthdata.push(HealthRec({exists: true, date: _date, desc: _desc, imghash: _imghash}));\n    }\n    function fetchHealthData(bytes32 _uniqueKey, uint index) public view returns (string memory) {\n        require(members[_uniqueKey].exists, \"No User Found\");\n        require(members[_uniqueKey].healthdata[index].exists, \"No Health Record Found\");\n        return (members[_uniqueKey].healthdata[index].desc);\n    }\n    function addPersonDetails(string memory _name, string memory _dob, string memory _addr, string memory _gender,\n        string memory _bloodgroup, uint _mobile, string memory _imghash) public returns (bytes32) {\n        hashIt(_name, _dob, _gender);\n        require(!members[uniqueKey].exists, \"Already registered\");\n        members[uniqueKey].exists = true;\n        members[uniqueKey].fullname = _name;\n        members[uniqueKey].dob = _dob;\n        members[uniqueKey].addr = _addr;\n        members[uniqueKey].gender = _gender;\n        members[uniqueKey].bloodgroup = _bloodgroup;\n        members[uniqueKey].mobile = _mobile;\n        members[uniqueKey].imghash = _imghash;\n    }\n    function getPersonDetails(bytes32 _candidateId) public view returns (string memory, string memory, string memory,\n    string memory, string memory, uint, string memory) {\n        require(members[_candidateId].exists, \"No User Found\");\n        return (members[_candidateId].fullname, members[_candidateId].dob,\n        members[_candidateId].addr, members[_candidateId].gender, members[_candidateId].bloodgroup,\n        members[_candidateId].mobile, members[_candidateId].imghash);\n    }\n}",
  "sourcePath": "/Users/apple/code/dotslash/identity/contracts/Identity.sol",
  "compiler": {
    "name": "solc",
    "version": "0.5.16+commit.9c3226ce.Emscripten.clang"
  },
  "schemaVersion": "3.0.21",
  "updatedAt": "2020-01-19T05:28:48.910Z",
  "networkType": "ethereum",
  "devdoc": {
    "methods": {}
  },
  "userdoc": {
    "methods": {}
  }
}